{
  "_format": "hh-sol-artifact-1",
  "contractName": "FunNFT",
  "sourceName": "contracts/nft.sol",
  "abi": [
    {
      "inputs": [],
      "stateMutability": "nonpayable",
      "type": "constructor"
    },
    {
      "anonymous": false,
      "inputs": [
        {
          "indexed": true,
          "internalType": "address",
          "name": "owner",
          "type": "address"
        },
        {
          "indexed": true,
          "internalType": "address",
          "name": "approved",
          "type": "address"
        },
        {
          "indexed": true,
          "internalType": "uint256",
          "name": "tokenId",
          "type": "uint256"
        }
      ],
      "name": "Approval",
      "type": "event"
    },
    {
      "anonymous": false,
      "inputs": [
        {
          "indexed": true,
          "internalType": "address",
          "name": "owner",
          "type": "address"
        },
        {
          "indexed": true,
          "internalType": "address",
          "name": "operator",
          "type": "address"
        },
        {
          "indexed": false,
          "internalType": "bool",
          "name": "approved",
          "type": "bool"
        }
      ],
      "name": "ApprovalForAll",
      "type": "event"
    },
    {
      "anonymous": false,
      "inputs": [
        {
          "indexed": true,
          "internalType": "address",
          "name": "from",
          "type": "address"
        },
        {
          "indexed": true,
          "internalType": "address",
          "name": "to",
          "type": "address"
        },
        {
          "indexed": true,
          "internalType": "uint256",
          "name": "tokenId",
          "type": "uint256"
        }
      ],
      "name": "Transfer",
      "type": "event"
    },
    {
      "inputs": [
        {
          "internalType": "address",
          "name": "to",
          "type": "address"
        },
        {
          "internalType": "uint256",
          "name": "tokenId",
          "type": "uint256"
        }
      ],
      "name": "approve",
      "outputs": [],
      "stateMutability": "nonpayable",
      "type": "function"
    },
    {
      "inputs": [
        {
          "internalType": "address",
          "name": "owner",
          "type": "address"
        }
      ],
      "name": "balanceOf",
      "outputs": [
        {
          "internalType": "uint256",
          "name": "",
          "type": "uint256"
        }
      ],
      "stateMutability": "view",
      "type": "function"
    },
    {
      "inputs": [
        {
          "internalType": "uint256",
          "name": "tokenId",
          "type": "uint256"
        }
      ],
      "name": "buy",
      "outputs": [],
      "stateMutability": "payable",
      "type": "function"
    },
    {
      "inputs": [
        {
          "internalType": "uint256",
          "name": "tokenId",
          "type": "uint256"
        }
      ],
      "name": "getApproved",
      "outputs": [
        {
          "internalType": "address",
          "name": "",
          "type": "address"
        }
      ],
      "stateMutability": "view",
      "type": "function"
    },
    {
      "inputs": [
        {
          "internalType": "address",
          "name": "owner",
          "type": "address"
        },
        {
          "internalType": "address",
          "name": "operator",
          "type": "address"
        }
      ],
      "name": "isApprovedForAll",
      "outputs": [
        {
          "internalType": "bool",
          "name": "",
          "type": "bool"
        }
      ],
      "stateMutability": "view",
      "type": "function"
    },
    {
      "inputs": [
        {
          "internalType": "string",
          "name": "tokenURI",
          "type": "string"
        },
        {
          "internalType": "uint256",
          "name": "price",
          "type": "uint256"
        }
      ],
      "name": "mint",
      "outputs": [
        {
          "internalType": "uint256",
          "name": "tokenId",
          "type": "uint256"
        }
      ],
      "stateMutability": "nonpayable",
      "type": "function"
    },
    {
      "inputs": [],
      "name": "name",
      "outputs": [
        {
          "internalType": "string",
          "name": "",
          "type": "string"
        }
      ],
      "stateMutability": "view",
      "type": "function"
    },
    {
      "inputs": [
        {
          "internalType": "uint256",
          "name": "tokenId",
          "type": "uint256"
        }
      ],
      "name": "ownerOf",
      "outputs": [
        {
          "internalType": "address",
          "name": "",
          "type": "address"
        }
      ],
      "stateMutability": "view",
      "type": "function"
    },
    {
      "inputs": [
        {
          "internalType": "address",
          "name": "from",
          "type": "address"
        },
        {
          "internalType": "address",
          "name": "to",
          "type": "address"
        },
        {
          "internalType": "uint256",
          "name": "tokenId",
          "type": "uint256"
        }
      ],
      "name": "safeTransferFrom",
      "outputs": [],
      "stateMutability": "nonpayable",
      "type": "function"
    },
    {
      "inputs": [
        {
          "internalType": "address",
          "name": "from",
          "type": "address"
        },
        {
          "internalType": "address",
          "name": "to",
          "type": "address"
        },
        {
          "internalType": "uint256",
          "name": "tokenId",
          "type": "uint256"
        },
        {
          "internalType": "bytes",
          "name": "_data",
          "type": "bytes"
        }
      ],
      "name": "safeTransferFrom",
      "outputs": [],
      "stateMutability": "nonpayable",
      "type": "function"
    },
    {
      "inputs": [
        {
          "internalType": "address",
          "name": "operator",
          "type": "address"
        },
        {
          "internalType": "bool",
          "name": "approved",
          "type": "bool"
        }
      ],
      "name": "setApprovalForAll",
      "outputs": [],
      "stateMutability": "nonpayable",
      "type": "function"
    },
    {
      "inputs": [
        {
          "internalType": "bytes4",
          "name": "interfaceId",
          "type": "bytes4"
        }
      ],
      "name": "supportsInterface",
      "outputs": [
        {
          "internalType": "bool",
          "name": "",
          "type": "bool"
        }
      ],
      "stateMutability": "view",
      "type": "function"
    },
    {
      "inputs": [],
      "name": "symbol",
      "outputs": [
        {
          "internalType": "string",
          "name": "",
          "type": "string"
        }
      ],
      "stateMutability": "view",
      "type": "function"
    },
    {
      "inputs": [
        {
          "internalType": "uint256",
          "name": "tokenId",
          "type": "uint256"
        }
      ],
      "name": "toggleForSale",
      "outputs": [],
      "stateMutability": "nonpayable",
      "type": "function"
    },
    {
      "inputs": [
        {
          "internalType": "uint256",
          "name": "tokenId",
          "type": "uint256"
        }
      ],
      "name": "tokenURI",
      "outputs": [
        {
          "internalType": "string",
          "name": "",
          "type": "string"
        }
      ],
      "stateMutability": "view",
      "type": "function"
    },
    {
      "inputs": [
        {
          "internalType": "address",
          "name": "from",
          "type": "address"
        },
        {
          "internalType": "address",
          "name": "to",
          "type": "address"
        },
        {
          "internalType": "uint256",
          "name": "tokenId",
          "type": "uint256"
        }
      ],
      "name": "transferFrom",
      "outputs": [],
      "stateMutability": "nonpayable",
      "type": "function"
    }
  ],
  "bytecode": "0x60806040523480156200001157600080fd5b506040518060400160405280601181526020017f46756e4e465420436f6c6c656374696f6e0000000000000000000000000000008152506040518060400160405280600381526020017f46554e0000000000000000000000000000000000000000000000000000000000815250816000908051906020019062000096929190620000b8565b508060019080519060200190620000af929190620000b8565b505050620001cd565b828054620000c69062000168565b90600052602060002090601f016020900481019282620000ea576000855562000136565b82601f106200010557805160ff191683800117855562000136565b8280016001018555821562000136579182015b828111156200013557825182559160200191906001019062000118565b5b50905062000145919062000149565b5090565b5b80821115620001645760008160009055506001016200014a565b5090565b600060028204905060018216806200018157607f821691505b602082108114156200019857620001976200019e565b5b50919050565b7f4e487b7100000000000000000000000000000000000000000000000000000000600052602260045260246000fd5b612e7d80620001dd6000396000f3fe6080604052600436106100f35760003560e01c806370a082311161008a578063b88d4fde11610059578063b88d4fde1461034c578063c87b56dd14610375578063d96a094a146103b2578063e985e9c5146103ce576100f3565b806370a082311461029257806395d89b41146102cf578063a22cb465146102fa578063a32018b914610323576100f3565b8063095ea7b3116100c6578063095ea7b3146101da57806323b872dd1461020357806342842e0e1461022c5780636352211e14610255576100f3565b806301ffc9a7146100f8578063056b01ce1461013557806306fdde0314610172578063081812fc1461019d575b600080fd5b34801561010457600080fd5b5061011f600480360381019061011a9190611fbd565b61040b565b60405161012c91906127d5565b60405180910390f35b34801561014157600080fd5b5061015c6004803603810190610157919061200f565b6104ed565b6040516101699190612a12565b60405180910390f35b34801561017e57600080fd5b5061018761058d565b60405161019491906127f0565b60405180910390f35b3480156101a957600080fd5b506101c460048036038101906101bf9190612063565b61061f565b6040516101d1919061276e565b60405180910390f35b3480156101e657600080fd5b5061020160048036038101906101fc9190611f81565b6106a4565b005b34801561020f57600080fd5b5061022a60048036038101906102259190611e7b565b6107bc565b005b34801561023857600080fd5b50610253600480360381019061024e9190611e7b565b61081c565b005b34801561026157600080fd5b5061027c60048036038101906102779190612063565b61083c565b604051610289919061276e565b60405180910390f35b34801561029e57600080fd5b506102b960048036038101906102b49190611e16565b6108ee565b6040516102c69190612a12565b60405180910390f35b3480156102db57600080fd5b506102e46109a6565b6040516102f191906127f0565b60405180910390f35b34801561030657600080fd5b50610321600480360381019061031c9190611f45565b610a38565b005b34801561032f57600080fd5b5061034a60048036038101906103459190612063565b610a4e565b005b34801561035857600080fd5b50610373600480360381019061036e9190611eca565b610b55565b005b34801561038157600080fd5b5061039c60048036038101906103979190612063565b610bb7565b6040516103a991906127f0565b60405180910390f35b6103cc60048036038101906103c79190612063565b610d09565b005b3480156103da57600080fd5b506103f560048036038101906103f09190611e3f565b610e8c565b60405161040291906127d5565b60405180910390f35b60007f80ac58cd000000000000000000000000000000000000000000000000000000007bffffffffffffffffffffffffffffffffffffffffffffffffffffffff1916827bffffffffffffffffffffffffffffffffffffffffffffffffffffffff191614806104d657507f5b5e139f000000000000000000000000000000000000000000000000000000007bffffffffffffffffffffffffffffffffffffffffffffffffffffffff1916827bffffffffffffffffffffffffffffffffffffffffffffffffffffffff1916145b806104e657506104e582610f20565b5b9050919050565b60006104f96007610f8a565b6105036007610fa0565b905061050f3382610fae565b610519818461117c565b600060405180606001604052808381526020018481526020016000151581525090508060086000848152602001908152602001600020600082015181600001556020820151816001015560408201518160020160006101000a81548160ff0219169083151502179055509050505092915050565b60606000805461059c90612c72565b80601f01602080910402602001604051908101604052809291908181526020018280546105c890612c72565b80156106155780601f106105ea57610100808354040283529160200191610615565b820191906000526020600020905b8154815290600101906020018083116105f857829003601f168201915b5050505050905090565b600061062a826111f0565b610669576040517f08c379a000000000000000000000000000000000000000000000000000000000815260040161066090612972565b60405180910390fd5b6004600083815260200190815260200160002060009054906101000a900473ffffffffffffffffffffffffffffffffffffffff169050919050565b60006106af8261083c565b90508073ffffffffffffffffffffffffffffffffffffffff168373ffffffffffffffffffffffffffffffffffffffff161415610720576040517f08c379a0000000000000000000000000000000000000000000000000000000008152600401610717906129d2565b60405180910390fd5b8073ffffffffffffffffffffffffffffffffffffffff1661073f61125c565b73ffffffffffffffffffffffffffffffffffffffff16148061076e575061076d8161076861125c565b610e8c565b5b6107ad576040517f08c379a00000000000000000000000000000000000000000000000000000000081526004016107a4906128b2565b60405180910390fd5b6107b78383611264565b505050565b6107cd6107c761125c565b8261131d565b61080c576040517f08c379a0000000000000000000000000000000000000000000000000000000008152600401610803906129f2565b60405180910390fd5b6108178383836113fb565b505050565b61083783838360405180602001604052806000815250610b55565b505050565b6000806002600084815260200190815260200160002060009054906101000a900473ffffffffffffffffffffffffffffffffffffffff169050600073ffffffffffffffffffffffffffffffffffffffff168173ffffffffffffffffffffffffffffffffffffffff1614156108e5576040517f08c379a00000000000000000000000000000000000000000000000000000000081526004016108dc906128f2565b60405180910390fd5b80915050919050565b60008073ffffffffffffffffffffffffffffffffffffffff168273ffffffffffffffffffffffffffffffffffffffff16141561095f576040517f08c379a0000000000000000000000000000000000000000000000000000000008152600401610956906128d2565b60405180910390fd5b600360008373ffffffffffffffffffffffffffffffffffffffff1673ffffffffffffffffffffffffffffffffffffffff168152602001908152602001600020549050919050565b6060600180546109b590612c72565b80601f01602080910402602001604051908101604052809291908181526020018280546109e190612c72565b8015610a2e5780601f10610a0357610100808354040283529160200191610a2e565b820191906000526020600020905b815481529060010190602001808311610a1157829003601f168201915b5050505050905090565b610a4a610a4361125c565b8383611657565b5050565b610a57816111f0565b610a6057600080fd5b610a698161083c565b73ffffffffffffffffffffffffffffffffffffffff163373ffffffffffffffffffffffffffffffffffffffff1614610aa057600080fd5b60006008600083815260200190815260200160002060405180606001604052908160008201548152602001600182015481526020016002820160009054906101000a900460ff16151515158152505090508060400151158160400190151590811515815250508060086000848152602001908152602001600020600082015181600001556020820151816001015560408201518160020160006101000a81548160ff0219169083151502179055509050505050565b610b66610b6061125c565b8361131d565b610ba5576040517f08c379a0000000000000000000000000000000000000000000000000000000008152600401610b9c906129f2565b60405180910390fd5b610bb1848484846117c4565b50505050565b6060610bc2826111f0565b610c01576040517f08c379a0000000000000000000000000000000000000000000000000000000008152600401610bf890612952565b60405180910390fd5b6000600660008481526020019081526020016000208054610c2190612c72565b80601f0160208091040260200160405190810160405280929190818152602001828054610c4d90612c72565b8015610c9a5780601f10610c6f57610100808354040283529160200191610c9a565b820191906000526020600020905b815481529060010190602001808311610c7d57829003601f168201915b505050505090506000610cab611820565b9050600081511415610cc1578192505050610d04565b600082511115610cf6578082604051602001610cde92919061274a565b60405160208183030381529060405292505050610d04565b610cff84611837565b925050505b919050565b610d12816111f0565b610d1b57600080fd5b610d248161083c565b73ffffffffffffffffffffffffffffffffffffffff163373ffffffffffffffffffffffffffffffffffffffff161415610d5c57600080fd5b60006008600083815260200190815260200160002060405180606001604052908160008201548152602001600182015481526020016002820160009054906101000a900460ff16151515158152505090508060200151341015610dbe57600080fd5b8060400151610dcc57600080fd5b6000610dd78361083c565b90508073ffffffffffffffffffffffffffffffffffffffff166108fc349081150290604051600060405180830381858888f19350505050158015610e1f573d6000803e3d6000fd5b50610e2b8133856113fb565b60008260400190151590811515815250508160086000858152602001908152602001600020600082015181600001556020820151816001015560408201518160020160006101000a81548160ff021916908315150217905550905050505050565b6000600560008473ffffffffffffffffffffffffffffffffffffffff1673ffffffffffffffffffffffffffffffffffffffff16815260200190815260200160002060008373ffffffffffffffffffffffffffffffffffffffff1673ffffffffffffffffffffffffffffffffffffffff16815260200190815260200160002060009054906101000a900460ff16905092915050565b60007f01ffc9a7000000000000000000000000000000000000000000000000000000007bffffffffffffffffffffffffffffffffffffffffffffffffffffffff1916827bffffffffffffffffffffffffffffffffffffffffffffffffffffffff1916149050919050565b6001816000016000828254019250508190555050565b600081600001549050919050565b600073ffffffffffffffffffffffffffffffffffffffff168273ffffffffffffffffffffffffffffffffffffffff16141561101e576040517f08c379a000000000000000000000000000000000000000000000000000000000815260040161101590612932565b60405180910390fd5b611027816111f0565b15611067576040517f08c379a000000000000000000000000000000000000000000000000000000000815260040161105e90612832565b60405180910390fd5b611073600083836118de565b6001600360008473ffffffffffffffffffffffffffffffffffffffff1673ffffffffffffffffffffffffffffffffffffffff16815260200190815260200160002060008282546110c39190612b01565b92505081905550816002600083815260200190815260200160002060006101000a81548173ffffffffffffffffffffffffffffffffffffffff021916908373ffffffffffffffffffffffffffffffffffffffff160217905550808273ffffffffffffffffffffffffffffffffffffffff16600073ffffffffffffffffffffffffffffffffffffffff167fddf252ad1be2c89b69c2b068fc378daa952ba7f163c4a11628f55a4df523b3ef60405160405180910390a45050565b611185826111f0565b6111c4576040517f08c379a00000000000000000000000000000000000000000000000000000000081526004016111bb90612912565b60405180910390fd5b806006600084815260200190815260200160002090805190602001906111eb929190611c3a565b505050565b60008073ffffffffffffffffffffffffffffffffffffffff166002600084815260200190815260200160002060009054906101000a900473ffffffffffffffffffffffffffffffffffffffff1673ffffffffffffffffffffffffffffffffffffffff1614159050919050565b600033905090565b816004600083815260200190815260200160002060006101000a81548173ffffffffffffffffffffffffffffffffffffffff021916908373ffffffffffffffffffffffffffffffffffffffff160217905550808273ffffffffffffffffffffffffffffffffffffffff166112d78361083c565b73ffffffffffffffffffffffffffffffffffffffff167f8c5be1e5ebec7d5bd14f71427d1e84f3dd0314c0f7b2291e5b200ac8c7c3b92560405160405180910390a45050565b6000611328826111f0565b611367576040517f08c379a000000000000000000000000000000000000000000000000000000000815260040161135e90612892565b60405180910390fd5b60006113728361083c565b90508073ffffffffffffffffffffffffffffffffffffffff168473ffffffffffffffffffffffffffffffffffffffff1614806113e157508373ffffffffffffffffffffffffffffffffffffffff166113c98461061f565b73ffffffffffffffffffffffffffffffffffffffff16145b806113f257506113f18185610e8c565b5b91505092915050565b8273ffffffffffffffffffffffffffffffffffffffff1661141b8261083c565b73ffffffffffffffffffffffffffffffffffffffff1614611471576040517f08c379a000000000000000000000000000000000000000000000000000000000815260040161146890612992565b60405180910390fd5b600073ffffffffffffffffffffffffffffffffffffffff168273ffffffffffffffffffffffffffffffffffffffff1614156114e1576040517f08c379a00000000000000000000000000000000000000000000000000000000081526004016114d890612852565b60405180910390fd5b6114ec8383836118de565b6114f7600082611264565b6001600360008573ffffffffffffffffffffffffffffffffffffffff1673ffffffffffffffffffffffffffffffffffffffff16815260200190815260200160002060008282546115479190612b88565b925050819055506001600360008473ffffffffffffffffffffffffffffffffffffffff1673ffffffffffffffffffffffffffffffffffffffff168152602001908152602001600020600082825461159e9190612b01565b92505081905550816002600083815260200190815260200160002060006101000a81548173ffffffffffffffffffffffffffffffffffffffff021916908373ffffffffffffffffffffffffffffffffffffffff160217905550808273ffffffffffffffffffffffffffffffffffffffff168473ffffffffffffffffffffffffffffffffffffffff167fddf252ad1be2c89b69c2b068fc378daa952ba7f163c4a11628f55a4df523b3ef60405160405180910390a4505050565b8173ffffffffffffffffffffffffffffffffffffffff168373ffffffffffffffffffffffffffffffffffffffff1614156116c6576040517f08c379a00000000000000000000000000000000000000000000000000000000081526004016116bd90612872565b60405180910390fd5b80600560008573ffffffffffffffffffffffffffffffffffffffff1673ffffffffffffffffffffffffffffffffffffffff16815260200190815260200160002060008473ffffffffffffffffffffffffffffffffffffffff1673ffffffffffffffffffffffffffffffffffffffff16815260200190815260200160002060006101000a81548160ff0219169083151502179055508173ffffffffffffffffffffffffffffffffffffffff168373ffffffffffffffffffffffffffffffffffffffff167f17307eab39ab6107e8899845ad3d59bd9653f200f220920489ca2b5937696c31836040516117b791906127d5565b60405180910390a3505050565b6117cf8484846113fb565b6117db848484846118e3565b61181a576040517f08c379a000000000000000000000000000000000000000000000000000000000815260040161181190612812565b60405180910390fd5b50505050565b606060405180602001604052806000815250905090565b6060611842826111f0565b611881576040517f08c379a0000000000000000000000000000000000000000000000000000000008152600401611878906129b2565b60405180910390fd5b600061188b611820565b905060008151116118ab57604051806020016040528060008152506118d6565b806118b584611a7a565b6040516020016118c692919061274a565b6040516020818303038152906040525b915050919050565b505050565b60006119048473ffffffffffffffffffffffffffffffffffffffff16611c27565b15611a6d578373ffffffffffffffffffffffffffffffffffffffff1663150b7a0261192d61125c565b8786866040518563ffffffff1660e01b815260040161194f9493929190612789565b602060405180830381600087803b15801561196957600080fd5b505af192505050801561199a57506040513d601f19601f820116820180604052508101906119979190611fe6565b60015b611a1d573d80600081146119ca576040519150601f19603f3d011682016040523d82523d6000602084013e6119cf565b606091505b50600081511415611a15576040517f08c379a0000000000000000000000000000000000000000000000000000000008152600401611a0c90612812565b60405180910390fd5b805181602001fd5b63150b7a0260e01b7bffffffffffffffffffffffffffffffffffffffffffffffffffffffff1916817bffffffffffffffffffffffffffffffffffffffffffffffffffffffff191614915050611a72565b600190505b949350505050565b60606000821415611ac2576040518060400160405280600181526020017f30000000000000000000000000000000000000000000000000000000000000008152509050611c22565b600082905060005b60008214611af4578080611add90612ca4565b915050600a82611aed9190612b57565b9150611aca565b60008167ffffffffffffffff811115611b36577f4e487b7100000000000000000000000000000000000000000000000000000000600052604160045260246000fd5b6040519080825280601f01601f191660200182016040528015611b685781602001600182028036833780820191505090505b5090505b60008514611c1b57600182611b819190612b88565b9150600a85611b909190612ced565b6030611b9c9190612b01565b60f81b818381518110611bd8577f4e487b7100000000000000000000000000000000000000000000000000000000600052603260045260246000fd5b60200101907effffffffffffffffffffffffffffffffffffffffffffffffffffffffffffff1916908160001a905350600a85611c149190612b57565b9450611b6c565b8093505050505b919050565b600080823b905060008111915050919050565b828054611c4690612c72565b90600052602060002090601f016020900481019282611c685760008555611caf565b82601f10611c8157805160ff1916838001178555611caf565b82800160010185558215611caf579182015b82811115611cae578251825591602001919060010190611c93565b5b509050611cbc9190611cc0565b5090565b5b80821115611cd9576000816000905550600101611cc1565b5090565b6000611cf0611ceb84612a5e565b612a2d565b905082815260208101848484011115611d0857600080fd5b611d13848285612c30565b509392505050565b6000611d2e611d2984612a8e565b612a2d565b905082815260208101848484011115611d4657600080fd5b611d51848285612c30565b509392505050565b600081359050611d6881612deb565b92915050565b600081359050611d7d81612e02565b92915050565b600081359050611d9281612e19565b92915050565b600081519050611da781612e19565b92915050565b600082601f830112611dbe57600080fd5b8135611dce848260208601611cdd565b91505092915050565b600082601f830112611de857600080fd5b8135611df8848260208601611d1b565b91505092915050565b600081359050611e1081612e30565b92915050565b600060208284031215611e2857600080fd5b6000611e3684828501611d59565b91505092915050565b60008060408385031215611e5257600080fd5b6000611e6085828601611d59565b9250506020611e7185828601611d59565b9150509250929050565b600080600060608486031215611e9057600080fd5b6000611e9e86828701611d59565b9350506020611eaf86828701611d59565b9250506040611ec086828701611e01565b9150509250925092565b60008060008060808587031215611ee057600080fd5b6000611eee87828801611d59565b9450506020611eff87828801611d59565b9350506040611f1087828801611e01565b925050606085013567ffffffffffffffff811115611f2d57600080fd5b611f3987828801611dad565b91505092959194509250565b60008060408385031215611f5857600080fd5b6000611f6685828601611d59565b9250506020611f7785828601611d6e565b9150509250929050565b60008060408385031215611f9457600080fd5b6000611fa285828601611d59565b9250506020611fb385828601611e01565b9150509250929050565b600060208284031215611fcf57600080fd5b6000611fdd84828501611d83565b91505092915050565b600060208284031215611ff857600080fd5b600061200684828501611d98565b91505092915050565b6000806040838503121561202257600080fd5b600083013567ffffffffffffffff81111561203c57600080fd5b61204885828601611dd7565b925050602061205985828601611e01565b9150509250929050565b60006020828403121561207557600080fd5b600061208384828501611e01565b91505092915050565b61209581612bbc565b82525050565b6120a481612bce565b82525050565b60006120b582612abe565b6120bf8185612ad4565b93506120cf818560208601612c3f565b6120d881612dda565b840191505092915050565b60006120ee82612ac9565b6120f88185612ae5565b9350612108818560208601612c3f565b61211181612dda565b840191505092915050565b600061212782612ac9565b6121318185612af6565b9350612141818560208601612c3f565b80840191505092915050565b600061215a603283612ae5565b91507f4552433732313a207472616e7366657220746f206e6f6e20455243373231526560008301527f63656976657220696d706c656d656e74657200000000000000000000000000006020830152604082019050919050565b60006121c0601c83612ae5565b91507f4552433732313a20746f6b656e20616c7265616479206d696e746564000000006000830152602082019050919050565b6000612200602483612ae5565b91507f4552433732313a207472616e7366657220746f20746865207a65726f2061646460008301527f72657373000000000000000000000000000000000000000000000000000000006020830152604082019050919050565b6000612266601983612ae5565b91507f4552433732313a20617070726f766520746f2063616c6c6572000000000000006000830152602082019050919050565b60006122a6602c83612ae5565b91507f4552433732313a206f70657261746f7220717565727920666f72206e6f6e657860008301527f697374656e7420746f6b656e00000000000000000000000000000000000000006020830152604082019050919050565b600061230c603883612ae5565b91507f4552433732313a20617070726f76652063616c6c6572206973206e6f74206f7760008301527f6e6572206e6f7220617070726f76656420666f7220616c6c00000000000000006020830152604082019050919050565b6000612372602a83612ae5565b91507f4552433732313a2062616c616e636520717565727920666f7220746865207a6560008301527f726f2061646472657373000000000000000000000000000000000000000000006020830152604082019050919050565b60006123d8602983612ae5565b91507f4552433732313a206f776e657220717565727920666f72206e6f6e657869737460008301527f656e7420746f6b656e00000000000000000000000000000000000000000000006020830152604082019050919050565b600061243e602e83612ae5565b91507f45524337323155524953746f726167653a2055524920736574206f66206e6f6e60008301527f6578697374656e7420746f6b656e0000000000000000000000000000000000006020830152604082019050919050565b60006124a4602083612ae5565b91507f4552433732313a206d696e7420746f20746865207a65726f20616464726573736000830152602082019050919050565b60006124e4603183612ae5565b91507f45524337323155524953746f726167653a2055524920717565727920666f722060008301527f6e6f6e6578697374656e7420746f6b656e0000000000000000000000000000006020830152604082019050919050565b600061254a602c83612ae5565b91507f4552433732313a20617070726f76656420717565727920666f72206e6f6e657860008301527f697374656e7420746f6b656e00000000000000000000000000000000000000006020830152604082019050919050565b60006125b0602983612ae5565b91507f4552433732313a207472616e73666572206f6620746f6b656e2074686174206960008301527f73206e6f74206f776e00000000000000000000000000000000000000000000006020830152604082019050919050565b6000612616602f83612ae5565b91507f4552433732314d657461646174613a2055524920717565727920666f72206e6f60008301527f6e6578697374656e7420746f6b656e00000000000000000000000000000000006020830152604082019050919050565b600061267c602183612ae5565b91507f4552433732313a20617070726f76616c20746f2063757272656e74206f776e6560008301527f72000000000000000000000000000000000000000000000000000000000000006020830152604082019050919050565b60006126e2603183612ae5565b91507f4552433732313a207472616e736665722063616c6c6572206973206e6f74206f60008301527f776e6572206e6f7220617070726f7665640000000000000000000000000000006020830152604082019050919050565b61274481612c26565b82525050565b6000612756828561211c565b9150612762828461211c565b91508190509392505050565b6000602082019050612783600083018461208c565b92915050565b600060808201905061279e600083018761208c565b6127ab602083018661208c565b6127b8604083018561273b565b81810360608301526127ca81846120aa565b905095945050505050565b60006020820190506127ea600083018461209b565b92915050565b6000602082019050818103600083015261280a81846120e3565b905092915050565b6000602082019050818103600083015261282b8161214d565b9050919050565b6000602082019050818103600083015261284b816121b3565b9050919050565b6000602082019050818103600083015261286b816121f3565b9050919050565b6000602082019050818103600083015261288b81612259565b9050919050565b600060208201905081810360008301526128ab81612299565b9050919050565b600060208201905081810360008301526128cb816122ff565b9050919050565b600060208201905081810360008301526128eb81612365565b9050919050565b6000602082019050818103600083015261290b816123cb565b9050919050565b6000602082019050818103600083015261292b81612431565b9050919050565b6000602082019050818103600083015261294b81612497565b9050919050565b6000602082019050818103600083015261296b816124d7565b9050919050565b6000602082019050818103600083015261298b8161253d565b9050919050565b600060208201905081810360008301526129ab816125a3565b9050919050565b600060208201905081810360008301526129cb81612609565b9050919050565b600060208201905081810360008301526129eb8161266f565b9050919050565b60006020820190508181036000830152612a0b816126d5565b9050919050565b6000602082019050612a27600083018461273b565b92915050565b6000604051905081810181811067ffffffffffffffff82111715612a5457612a53612dab565b5b8060405250919050565b600067ffffffffffffffff821115612a7957612a78612dab565b5b601f19601f8301169050602081019050919050565b600067ffffffffffffffff821115612aa957612aa8612dab565b5b601f19601f8301169050602081019050919050565b600081519050919050565b600081519050919050565b600082825260208201905092915050565b600082825260208201905092915050565b600081905092915050565b6000612b0c82612c26565b9150612b1783612c26565b9250827fffffffffffffffffffffffffffffffffffffffffffffffffffffffffffffffff03821115612b4c57612b4b612d1e565b5b828201905092915050565b6000612b6282612c26565b9150612b6d83612c26565b925082612b7d57612b7c612d4d565b5b828204905092915050565b6000612b9382612c26565b9150612b9e83612c26565b925082821015612bb157612bb0612d1e565b5b828203905092915050565b6000612bc782612c06565b9050919050565b60008115159050919050565b60007fffffffff0000000000000000000000000000000000000000000000000000000082169050919050565b600073ffffffffffffffffffffffffffffffffffffffff82169050919050565b6000819050919050565b82818337600083830152505050565b60005b83811015612c5d578082015181840152602081019050612c42565b83811115612c6c576000848401525b50505050565b60006002820490506001821680612c8a57607f821691505b60208210811415612c9e57612c9d612d7c565b5b50919050565b6000612caf82612c26565b91507fffffffffffffffffffffffffffffffffffffffffffffffffffffffffffffffff821415612ce257612ce1612d1e565b5b600182019050919050565b6000612cf882612c26565b9150612d0383612c26565b925082612d1357612d12612d4d565b5b828206905092915050565b7f4e487b7100000000000000000000000000000000000000000000000000000000600052601160045260246000fd5b7f4e487b7100000000000000000000000000000000000000000000000000000000600052601260045260246000fd5b7f4e487b7100000000000000000000000000000000000000000000000000000000600052602260045260246000fd5b7f4e487b7100000000000000000000000000000000000000000000000000000000600052604160045260246000fd5b6000601f19601f8301169050919050565b612df481612bbc565b8114612dff57600080fd5b50565b612e0b81612bce565b8114612e1657600080fd5b50565b612e2281612bda565b8114612e2d57600080fd5b50565b612e3981612c26565b8114612e4457600080fd5b5056fea264697066735822122004cbc39f3e7a15561d6eda5aea9519c47ffaede9f1a951bc2dab7aaa493af36e64736f6c63430008000033",
  "linkReferences": {},
  "deployedLinkReferences": {}
}